{"address":"0xb56B55B1E36BdF01e016C30b0A62f9Ff745155f4","bytecode":"0x6101806040523480156200001257600080fd5b506040516200255438038062002554833981810160405281019062000038919062000870565b8473ffffffffffffffffffffffffffffffffffffffff1660808173ffffffffffffffffffffffffffffffffffffffff16815250508373ffffffffffffffffffffffffffffffffffffffff1660a08173ffffffffffffffffffffffffffffffffffffffff16815250508073ffffffffffffffffffffffffffffffffffffffff1660c08173ffffffffffffffffffffffffffffffffffffffff16815250508273ffffffffffffffffffffffffffffffffffffffff1660e08173ffffffffffffffffffffffffffffffffffffffff16815250508173ffffffffffffffffffffffffffffffffffffffff166101008173ffffffffffffffffffffffffffffffffffffffff1681525050620001886040518060400160405280601181526020017f676574206261736520646563696d616c73000000000000000000000000000000815250620006b060201b6200080b1760201c565b8273ffffffffffffffffffffffffffffffffffffffff1663313ce5676040518163ffffffff1660e01b8152600401602060405180830381865afa158015620001d4573d6000803e3d6000fd5b505050506040513d601f19601f82011682018060405250810190620001fa919062000936565b60ff166101208160ff1681525050620002536040518060400160405280601281526020017f6765742071756f746520646563696d616c730000000000000000000000000000815250620006b060201b6200080b1760201c565b8173ffffffffffffffffffffffffffffffffffffffff1663313ce5676040518163ffffffff1660e01b8152600401602060405180830381865afa1580156200029f573d6000803e3d6000fd5b505050506040513d601f19601f82011682018060405250810190620002c5919062000936565b60ff166101408160ff16815250506200031e6040518060400160405280600c81526020017f636865636b20746f6b656e300000000000000000000000000000000000000000815250620006b060201b6200080b1760201c565b8173ffffffffffffffffffffffffffffffffffffffff168173ffffffffffffffffffffffffffffffffffffffff16630dfe16816040518163ffffffff1660e01b8152600401602060405180830381865afa15801562000381573d6000803e3d6000fd5b505050506040513d601f19601f82011682018060405250810190620003a7919062000968565b73ffffffffffffffffffffffffffffffffffffffff1614151561016081151581525050620004156040518060400160405280600c81526020017f617070726f766520736869740000000000000000000000000000000000000000815250620006b060201b6200080b1760201c565b8273ffffffffffffffffffffffffffffffffffffffff1663095ea7b3867fffffffffffffffffffffffffffffffffffffffffffffffffffffffffffffffff6040518363ffffffff1660e01b815260040162000472929190620009c6565b6020604051808303816000875af115801562000492573d6000803e3d6000fd5b505050506040513d601f19601f82011682018060405250810190620004b8919062000a30565b508173ffffffffffffffffffffffffffffffffffffffff1663095ea7b3867fffffffffffffffffffffffffffffffffffffffffffffffffffffffffffffffff6040518363ffffffff1660e01b815260040162000516929190620009c6565b6020604051808303816000875af115801562000536573d6000803e3d6000fd5b505050506040513d601f19601f820116820180604052508101906200055c919062000a30565b508273ffffffffffffffffffffffffffffffffffffffff1663095ea7b3827fffffffffffffffffffffffffffffffffffffffffffffffffffffffffffffffff6040518363ffffffff1660e01b8152600401620005ba929190620009c6565b6020604051808303816000875af1158015620005da573d6000803e3d6000fd5b505050506040513d601f19601f8201168201806040525081019062000600919062000a30565b508173ffffffffffffffffffffffffffffffffffffffff1663095ea7b3827fffffffffffffffffffffffffffffffffffffffffffffffffffffffffffffffff6040518363ffffffff1660e01b81526004016200065e929190620009c6565b6020604051808303816000875af11580156200067e573d6000803e3d6000fd5b505050506040513d601f19601f82011682018060405250810190620006a4919062000a30565b50505050505062000b2a565b6200075081604051602401620006c7919062000b06565b6040516020818303038152906040527f41304fac000000000000000000000000000000000000000000000000000000007bffffffffffffffffffffffffffffffffffffffffffffffffffffffff19166020820180517bffffffffffffffffffffffffffffffffffffffffffffffffffffffff83818316178352505050506200075360201b60201c565b50565b60008151905060006a636f6e736f6c652e6c6f679050602083016000808483855afa5050505050565b600080fd5b600073ffffffffffffffffffffffffffffffffffffffff82169050919050565b6000620007ae8262000781565b9050919050565b6000620007c282620007a1565b9050919050565b620007d481620007b5565b8114620007e057600080fd5b50565b600081519050620007f481620007c9565b92915050565b60006200080782620007a1565b9050919050565b6200081981620007fa565b81146200082557600080fd5b50565b60008151905062000839816200080e565b92915050565b6200084a81620007a1565b81146200085657600080fd5b50565b6000815190506200086a816200083f565b92915050565b600080600080600060a086880312156200088f576200088e6200077c565b5b60006200089f88828901620007e3565b9550506020620008b28882890162000828565b9450506040620008c58882890162000859565b9350506060620008d88882890162000859565b9250506080620008eb8882890162000859565b9150509295509295909350565b600060ff82169050919050565b6200091081620008f8565b81146200091c57600080fd5b50565b600081519050620009308162000905565b92915050565b6000602082840312156200094f576200094e6200077c565b5b60006200095f848285016200091f565b91505092915050565b6000602082840312156200098157620009806200077c565b5b6000620009918482850162000859565b91505092915050565b620009a581620007a1565b82525050565b6000819050919050565b620009c081620009ab565b82525050565b6000604082019050620009dd60008301856200099a565b620009ec6020830184620009b5565b9392505050565b60008115159050919050565b62000a0a81620009f3565b811462000a1657600080fd5b50565b60008151905062000a2a81620009ff565b92915050565b60006020828403121562000a495762000a486200077c565b5b600062000a598482850162000a19565b91505092915050565b600081519050919050565b600082825260208201905092915050565b60005b8381101562000a9e57808201518184015260208101905062000a81565b8381111562000aae576000848401525b50505050565b6000601f19601f8301169050919050565b600062000ad28262000a62565b62000ade818562000a6d565b935062000af081856020860162000a7e565b62000afb8162000ab4565b840191505092915050565b6000602082019050818103600083015262000b22818462000ac5565b905092915050565b60805160a05160c05160e0516101005161012051610140516101605161196262000bf260003960008181610c140152610c3b015260006104f2015260006104ce0152600081816102a70152818161055e01528181610743015281816109350152610a770152600081816102cd015281816105160152818161071d0152818161095b0152610a5101526000818161027c015281816107800152610b2f015260006101df01526000818161040d0152818161053a015281816108f40152610a1001526119626000f3fe608060405234801561001057600080fd5b506004361061009e5760003560e01c80633fd1e2bd116100665780633fd1e2bd146101495780635001f3b5146101675780637535d24614610185578063999b93af146101a3578063fa461e33146101c15761009e565b80630542975c146100a35780631b11d0ff146100c15780632681f7e4146100f15780633075962f1461010f57806333f761781461012b575b600080fd5b6100ab6101dd565b6040516100b89190610d0a565b60405180910390f35b6100db60048036038101906100d69190610e08565b610201565b6040516100e89190610ebd565b60405180910390f35b6100f961027a565b6040516101069190610ef9565b60405180910390f35b61012960048036038101906101249190610f79565b61029e565b005b6101336104cc565b6040516101409190610fef565b60405180910390f35b6101516104f0565b60405161015e9190610fef565b60405180910390f35b61016f610514565b60405161017c919061102b565b60405180910390f35b61018d610538565b60405161019a9190611067565b60405180910390f35b6101ab61055c565b6040516101b8919061102b565b60405180910390f35b6101db60048036038101906101d691906110b8565b610580565b005b7f000000000000000000000000000000000000000000000000000000000000000081565b60008060008060008686810190610218919061116a565b935093509350935061025e6040518060400160405280601d81526020017f626f72726f77206f6e206161766520616e2073776170206f6e20756e6900000081525061080b565b61026c848484848e8e6108a4565b505050509695505050505050565b7f000000000000000000000000000000000000000000000000000000000000000081565b6000816102cb577f00000000000000000000000000000000000000000000000000000000000000006102ed565b7f00000000000000000000000000000000000000000000000000000000000000005b905061032d6040518060400160405280600f81526020017f7472616e7366657220746f6b656e73000000000000000000000000000000000081525061080b565b8073ffffffffffffffffffffffffffffffffffffffff166323b872dd3330876040518463ffffffff1660e01b815260040161036a939291906111ef565b6020604051808303816000875af1158015610389573d6000803e3d6000fd5b505050506040513d601f19601f820116820180604052508101906103ad919061123b565b5060006001846103bd9190611297565b60ff16856103cb91906112cb565b905061040b6040518060400160405280601081526020017f666c6173686c6f616e2073696d706c650000000000000000000000000000000081525061080b565b7f000000000000000000000000000000000000000000000000000000000000000073ffffffffffffffffffffffffffffffffffffffff166342b0b77c30848433888b8d6040516020016104619493929190611325565b60405160208183030381529060405260006040518663ffffffff1660e01b815260040161049295949392919061144c565b600060405180830381600087803b1580156104ac57600080fd5b505af11580156104c0573d6000803e3d6000fd5b50505050505050505050565b7f000000000000000000000000000000000000000000000000000000000000000081565b7f000000000000000000000000000000000000000000000000000000000000000081565b7f000000000000000000000000000000000000000000000000000000000000000081565b7f000000000000000000000000000000000000000000000000000000000000000081565b7f000000000000000000000000000000000000000000000000000000000000000081565b6105be6040518060400160405280600e81526020017f63617463682063616c6c6261636b00000000000000000000000000000000000081525061080b565b600080600084848101906105d291906114a6565b92509250925060006105e384610c0b565b9050600088141580156105f7575060008714155b610636576040517f08c379a000000000000000000000000000000000000000000000000000000000815260040161062d90611556565b60405180910390fd5b806106445760008813610649565b600087135b610688576040517f08c379a000000000000000000000000000000000000000000000000000000000815260040161067f906115c2565b60405180910390fd5b8061069557818811610699565b8187115b6106d8576040517f08c379a00000000000000000000000000000000000000000000000000000000081526004016106cf9061162e565b60405180910390fd5b6107166040518060400160405280601581526020017f73616372696669636520746f20756e6920676f6473000000000000000000000081525061080b565b83610741577f0000000000000000000000000000000000000000000000000000000000000000610763565b7f00000000000000000000000000000000000000000000000000000000000000005b73ffffffffffffffffffffffffffffffffffffffff1663a9059cbb7f0000000000000000000000000000000000000000000000000000000000000000856040518363ffffffff1660e01b81526004016107bd92919061164e565b6020604051808303816000875af11580156107dc573d6000803e3d6000fd5b505050506040513d601f19601f82011682018060405250810190610800919061123b565b505050505050505050565b6108a18160405160240161081f91906116bb565b6040516020818303038152906040527f41304fac000000000000000000000000000000000000000000000000000000007bffffffffffffffffffffffffffffffffffffffffffffffffffffffff19166020820180517bffffffffffffffffffffffffffffffffffffffffffffffffffffffff8381831617835250505050610c62565b50565b600082856108b291906116dd565b90506108f26040518060400160405280600d81526020017f737570706c79206173736574730000000000000000000000000000000000000081525061080b565b7f000000000000000000000000000000000000000000000000000000000000000073ffffffffffffffffffffffffffffffffffffffff1663617ba03787610959577f000000000000000000000000000000000000000000000000000000000000000061097b565b7f00000000000000000000000000000000000000000000000000000000000000005b838a60006040518563ffffffff1660e01b815260040161099e9493929190611733565b600060405180830381600087803b1580156109b857600080fd5b505af11580156109cc573d6000803e3d6000fd5b50505050610a0e6040518060400160405280600d81526020017f626f72726f77206173736574730000000000000000000000000000000000000081525061080b565b7f000000000000000000000000000000000000000000000000000000000000000073ffffffffffffffffffffffffffffffffffffffff1663a415bcad87610a75577f0000000000000000000000000000000000000000000000000000000000000000610a97565b7f00000000000000000000000000000000000000000000000000000000000000005b86600260008c6040518663ffffffff1660e01b8152600401610abd9594939291906117b3565b600060405180830381600087803b158015610ad757600080fd5b505af1158015610aeb573d6000803e3d6000fd5b50505050610b2d6040518060400160405280601181526020017f73776170207769746820756e697377617000000000000000000000000000000081525061080b565b7f000000000000000000000000000000000000000000000000000000000000000073ffffffffffffffffffffffffffffffffffffffff1663128acb083060008760008b8a898b610b7d91906116dd565b604051602001610b8f93929190611806565b6040516020818303038152906040526040518663ffffffff1660e01b8152600401610bbe95949392919061187d565b60408051808303816000875af1158015610bdc573d6000803e3d6000fd5b505050506040513d601f19601f82011682018060405250810190610c0091906118ec565b505050505050505050565b600081610c39577f000000000000000000000000000000000000000000000000000000000000000015610c5b565b7f00000000000000000000000000000000000000000000000000000000000000005b9050919050565b60008151905060006a636f6e736f6c652e6c6f679050602083016000808483855afa5050505050565b600073ffffffffffffffffffffffffffffffffffffffff82169050919050565b6000819050919050565b6000610cd0610ccb610cc684610c8b565b610cab565b610c8b565b9050919050565b6000610ce282610cb5565b9050919050565b6000610cf482610cd7565b9050919050565b610d0481610ce9565b82525050565b6000602082019050610d1f6000830184610cfb565b92915050565b600080fd5b600080fd5b6000610d3a82610c8b565b9050919050565b610d4a81610d2f565b8114610d5557600080fd5b50565b600081359050610d6781610d41565b92915050565b6000819050919050565b610d8081610d6d565b8114610d8b57600080fd5b50565b600081359050610d9d81610d77565b92915050565b600080fd5b600080fd5b600080fd5b60008083601f840112610dc857610dc7610da3565b5b8235905067ffffffffffffffff811115610de557610de4610da8565b5b602083019150836001820283011115610e0157610e00610dad565b5b9250929050565b60008060008060008060a08789031215610e2557610e24610d25565b5b6000610e3389828a01610d58565b9650506020610e4489828a01610d8e565b9550506040610e5589828a01610d8e565b9450506060610e6689828a01610d58565b935050608087013567ffffffffffffffff811115610e8757610e86610d2a565b5b610e9389828a01610db2565b92509250509295509295509295565b60008115159050919050565b610eb781610ea2565b82525050565b6000602082019050610ed26000830184610eae565b92915050565b6000610ee382610cd7565b9050919050565b610ef381610ed8565b82525050565b6000602082019050610f0e6000830184610eea565b92915050565b600060ff82169050919050565b610f2a81610f14565b8114610f3557600080fd5b50565b600081359050610f4781610f21565b92915050565b610f5681610ea2565b8114610f6157600080fd5b50565b600081359050610f7381610f4d565b92915050565b60008060008060808587031215610f9357610f92610d25565b5b6000610fa187828801610d8e565b9450506020610fb287828801610d8e565b9350506040610fc387828801610f38565b9250506060610fd487828801610f64565b91505092959194509250565b610fe981610f14565b82525050565b60006020820190506110046000830184610fe0565b92915050565b600061101582610cd7565b9050919050565b6110258161100a565b82525050565b6000602082019050611040600083018461101c565b92915050565b600061105182610cd7565b9050919050565b61106181611046565b82525050565b600060208201905061107c6000830184611058565b92915050565b6000819050919050565b61109581611082565b81146110a057600080fd5b50565b6000813590506110b28161108c565b92915050565b600080600080606085870312156110d2576110d1610d25565b5b60006110e0878288016110a3565b94505060206110f1878288016110a3565b935050604085013567ffffffffffffffff81111561111257611111610d2a565b5b61111e87828801610db2565b925092505092959194509250565b600061113782610c8b565b9050919050565b6111478161112c565b811461115257600080fd5b50565b6000813590506111648161113e565b92915050565b6000806000806080858703121561118457611183610d25565b5b600061119287828801611155565b94505060206111a387828801610f64565b93505060406111b487828801610d8e565b92505060606111c587828801610d8e565b91505092959194509250565b6111da81610d2f565b82525050565b6111e981610d6d565b82525050565b600060608201905061120460008301866111d1565b61121160208301856111d1565b61121e60408301846111e0565b949350505050565b60008151905061123581610f4d565b92915050565b60006020828403121561125157611250610d25565b5b600061125f84828501611226565b91505092915050565b7f4e487b7100000000000000000000000000000000000000000000000000000000600052601160045260246000fd5b60006112a282610f14565b91506112ad83610f14565b9250828210156112c0576112bf611268565b5b828203905092915050565b60006112d682610d6d565b91506112e183610d6d565b9250817fffffffffffffffffffffffffffffffffffffffffffffffffffffffffffffffff048311821515161561131a57611319611268565b5b828202905092915050565b600060808201905061133a60008301876111d1565b6113476020830186610eae565b61135460408301856111e0565b61136160608301846111e0565b95945050505050565b600081519050919050565b600082825260208201905092915050565b60005b838110156113a4578082015181840152602081019050611389565b838111156113b3576000848401525b50505050565b6000601f19601f8301169050919050565b60006113d58261136a565b6113df8185611375565b93506113ef818560208601611386565b6113f8816113b9565b840191505092915050565b6000819050919050565b600061ffff82169050919050565b600061143661143161142c84611403565b610cab565b61140d565b9050919050565b6114468161141b565b82525050565b600060a08201905061146160008301886111d1565b61146e60208301876111d1565b61147b60408301866111e0565b818103606083015261148d81856113ca565b905061149c608083018461143d565b9695505050505050565b6000806000606084860312156114bf576114be610d25565b5b60006114cd86828701610f64565b93505060206114de86828701610d8e565b92505060406114ef86828701610d8e565b9150509250925092565b600082825260208201905092915050565b7f4e6f207377617000000000000000000000000000000000000000000000000000600082015250565b60006115406007836114f9565b915061154b8261150a565b602082019050919050565b6000602082019050818103600083015261156f81611533565b9050919050565b7f57726f6e672062616c616e636520726563656976656400000000000000000000600082015250565b60006115ac6016836114f9565b91506115b782611576565b602082019050919050565b600060208201905081810360008301526115db8161159f565b9050919050565b7f4e6f7420656e6f75676820726563656976656400000000000000000000000000600082015250565b60006116186013836114f9565b9150611623826115e2565b602082019050919050565b600060208201905081810360008301526116478161160b565b9050919050565b600060408201905061166360008301856111d1565b61167060208301846111e0565b9392505050565b600081519050919050565b600061168d82611677565b61169781856114f9565b93506116a7818560208601611386565b6116b0816113b9565b840191505092915050565b600060208201905081810360008301526116d58184611682565b905092915050565b60006116e882610d6d565b91506116f383610d6d565b9250827fffffffffffffffffffffffffffffffffffffffffffffffffffffffffffffffff0382111561172857611727611268565b5b828201905092915050565b600060808201905061174860008301876111d1565b61175560208301866111e0565b61176260408301856111d1565b61176f606083018461143d565b95945050505050565b6000819050919050565b600061179d61179861179384611778565b610cab565b610d6d565b9050919050565b6117ad81611782565b82525050565b600060a0820190506117c860008301886111d1565b6117d560208301876111e0565b6117e260408301866117a4565b6117ef606083018561143d565b6117fc60808301846111d1565b9695505050505050565b600060608201905061181b6000830186610eae565b61182860208301856111e0565b61183560408301846111e0565b949350505050565b61184681611082565b82525050565b600061186761186261185d84611403565b610cab565b610c8b565b9050919050565b6118778161184c565b82525050565b600060a08201905061189260008301886111d1565b61189f6020830187610eae565b6118ac604083018661183d565b6118b9606083018561186e565b81810360808301526118cb81846113ca565b90509695505050505050565b6000815190506118e68161108c565b92915050565b6000806040838503121561190357611902610d25565b5b6000611911858286016118d7565b9250506020611922858286016118d7565b915050925092905056fea26469706673582212209dec9cae3dcb4ce141f800691be947dfcf2830b2f29a9f77b6ebf457f8b8e00864736f6c634300080a0033","abi":[{"inputs":[{"internalType":"contract IPool","name":"_pool","type":"address"},{"internalType":"contract IPoolAddressesProvider","name":"_addressesProvider","type":"address"},{"internalType":"address","name":"_base","type":"address"},{"internalType":"address","name":"_quote","type":"address"},{"internalType":"address","name":"_uniPool","type":"address"}],"stateMutability":"nonpayable","type":"constructor"},{"inputs":[],"name":"ADDRESSES_PROVIDER","outputs":[{"internalType":"contract IPoolAddressesProvider","name":"","type":"address"}],"stateMutability":"view","type":"function"},{"inputs":[],"name":"POOL","outputs":[{"internalType":"contract IPool","name":"","type":"address"}],"stateMutability":"view","type":"function"},{"inputs":[],"name":"base","outputs":[{"internalType":"contract IERC20","name":"","type":"address"}],"stateMutability":"view","type":"function"},{"inputs":[],"name":"baseDecimals","outputs":[{"internalType":"uint8","name":"","type":"uint8"}],"stateMutability":"view","type":"function"},{"inputs":[{"internalType":"address","name":"","type":"address"},{"internalType":"uint256","name":"amount","type":"uint256"},{"internalType":"uint256","name":"premium","type":"uint256"},{"internalType":"address","name":"","type":"address"},{"internalType":"bytes","name":"params","type":"bytes"}],"name":"executeOperation","outputs":[{"internalType":"bool","name":"","type":"bool"}],"stateMutability":"nonpayable","type":"function"},{"inputs":[],"name":"quote","outputs":[{"internalType":"contract IERC20","name":"","type":"address"}],"stateMutability":"view","type":"function"},{"inputs":[],"name":"quoteDecimals","outputs":[{"internalType":"uint8","name":"","type":"uint8"}],"stateMutability":"view","type":"function"},{"inputs":[{"internalType":"uint256","name":"borrowAmount","type":"uint256"},{"internalType":"uint256","name":"collateral","type":"uint256"},{"internalType":"uint8","name":"leverage","type":"uint8"},{"internalType":"bool","name":"isLong","type":"bool"}],"name":"takeOutFlashLoan","outputs":[],"stateMutability":"nonpayable","type":"function"},{"inputs":[],"name":"uniswap","outputs":[{"internalType":"contract IUniswapV3PoolActions","name":"","type":"address"}],"stateMutability":"view","type":"function"},{"inputs":[{"internalType":"int256","name":"amount0Delta","type":"int256"},{"internalType":"int256","name":"amount1Delta","type":"int256"},{"internalType":"bytes","name":"data","type":"bytes"}],"name":"uniswapV3SwapCallback","outputs":[],"stateMutability":"nonpayable","type":"function"}]}