{"address":"0xb56B55B1E36BdF01e016C30b0A62f9Ff745155f4","bytecode":"0x6101806040523480156200001257600080fd5b506040516200236b3803806200236b833981810160405281019062000038919062000870565b8473ffffffffffffffffffffffffffffffffffffffff1660808173ffffffffffffffffffffffffffffffffffffffff16815250508373ffffffffffffffffffffffffffffffffffffffff1660a08173ffffffffffffffffffffffffffffffffffffffff16815250508073ffffffffffffffffffffffffffffffffffffffff1660c08173ffffffffffffffffffffffffffffffffffffffff16815250508273ffffffffffffffffffffffffffffffffffffffff1660e08173ffffffffffffffffffffffffffffffffffffffff16815250508173ffffffffffffffffffffffffffffffffffffffff166101008173ffffffffffffffffffffffffffffffffffffffff1681525050620001886040518060400160405280601181526020017f676574206261736520646563696d616c73000000000000000000000000000000815250620006b060201b620006d51760201c565b8273ffffffffffffffffffffffffffffffffffffffff1663313ce5676040518163ffffffff1660e01b8152600401602060405180830381865afa158015620001d4573d6000803e3d6000fd5b505050506040513d601f19601f82011682018060405250810190620001fa919062000936565b60ff166101208160ff1681525050620002536040518060400160405280601281526020017f6765742071756f746520646563696d616c730000000000000000000000000000815250620006b060201b620006d51760201c565b8173ffffffffffffffffffffffffffffffffffffffff1663313ce5676040518163ffffffff1660e01b8152600401602060405180830381865afa1580156200029f573d6000803e3d6000fd5b505050506040513d601f19601f82011682018060405250810190620002c5919062000936565b60ff166101408160ff16815250506200031e6040518060400160405280600c81526020017f636865636b20746f6b656e300000000000000000000000000000000000000000815250620006b060201b620006d51760201c565b8173ffffffffffffffffffffffffffffffffffffffff168173ffffffffffffffffffffffffffffffffffffffff16630dfe16816040518163ffffffff1660e01b8152600401602060405180830381865afa15801562000381573d6000803e3d6000fd5b505050506040513d601f19601f82011682018060405250810190620003a7919062000968565b73ffffffffffffffffffffffffffffffffffffffff1614151561016081151581525050620004156040518060400160405280600c81526020017f617070726f766520736869740000000000000000000000000000000000000000815250620006b060201b620006d51760201c565b8273ffffffffffffffffffffffffffffffffffffffff1663095ea7b3867fffffffffffffffffffffffffffffffffffffffffffffffffffffffffffffffff6040518363ffffffff1660e01b815260040162000472929190620009c6565b6020604051808303816000875af115801562000492573d6000803e3d6000fd5b505050506040513d601f19601f82011682018060405250810190620004b8919062000a30565b508173ffffffffffffffffffffffffffffffffffffffff1663095ea7b3867fffffffffffffffffffffffffffffffffffffffffffffffffffffffffffffffff6040518363ffffffff1660e01b815260040162000516929190620009c6565b6020604051808303816000875af115801562000536573d6000803e3d6000fd5b505050506040513d601f19601f820116820180604052508101906200055c919062000a30565b508273ffffffffffffffffffffffffffffffffffffffff1663095ea7b3827fffffffffffffffffffffffffffffffffffffffffffffffffffffffffffffffff6040518363ffffffff1660e01b8152600401620005ba929190620009c6565b6020604051808303816000875af1158015620005da573d6000803e3d6000fd5b505050506040513d601f19601f8201168201806040525081019062000600919062000a30565b508173ffffffffffffffffffffffffffffffffffffffff1663095ea7b3827fffffffffffffffffffffffffffffffffffffffffffffffffffffffffffffffff6040518363ffffffff1660e01b81526004016200065e929190620009c6565b6020604051808303816000875af11580156200067e573d6000803e3d6000fd5b505050506040513d601f19601f82011682018060405250810190620006a4919062000a30565b50505050505062000b2a565b6200075081604051602401620006c7919062000b06565b6040516020818303038152906040527f41304fac000000000000000000000000000000000000000000000000000000007bffffffffffffffffffffffffffffffffffffffffffffffffffffffff19166020820180517bffffffffffffffffffffffffffffffffffffffffffffffffffffffff83818316178352505050506200075360201b60201c565b50565b60008151905060006a636f6e736f6c652e6c6f679050602083016000808483855afa5050505050565b600080fd5b600073ffffffffffffffffffffffffffffffffffffffff82169050919050565b6000620007ae8262000781565b9050919050565b6000620007c282620007a1565b9050919050565b620007d481620007b5565b8114620007e057600080fd5b50565b600081519050620007f481620007c9565b92915050565b60006200080782620007a1565b9050919050565b6200081981620007fa565b81146200082557600080fd5b50565b60008151905062000839816200080e565b92915050565b6200084a81620007a1565b81146200085657600080fd5b50565b6000815190506200086a816200083f565b92915050565b600080600080600060a086880312156200088f576200088e6200077c565b5b60006200089f88828901620007e3565b9550506020620008b28882890162000828565b9450506040620008c58882890162000859565b9350506060620008d88882890162000859565b9250506080620008eb8882890162000859565b9150509295509295909350565b600060ff82169050919050565b6200091081620008f8565b81146200091c57600080fd5b50565b600081519050620009308162000905565b92915050565b6000602082840312156200094f576200094e6200077c565b5b60006200095f848285016200091f565b91505092915050565b6000602082840312156200098157620009806200077c565b5b6000620009918482850162000859565b91505092915050565b620009a581620007a1565b82525050565b6000819050919050565b620009c081620009ab565b82525050565b6000604082019050620009dd60008301856200099a565b620009ec6020830184620009b5565b9392505050565b60008115159050919050565b62000a0a81620009f3565b811462000a1657600080fd5b50565b60008151905062000a2a81620009ff565b92915050565b60006020828403121562000a495762000a486200077c565b5b600062000a598482850162000a19565b91505092915050565b600081519050919050565b600082825260208201905092915050565b60005b8381101562000a9e57808201518184015260208101905062000a81565b8381111562000aae576000848401525b50505050565b6000601f19601f8301169050919050565b600062000ad28262000a62565b62000ade818562000a6d565b935062000af081856020860162000a7e565b62000afb8162000ab4565b840191505092915050565b6000602082019050818103600083015262000b22818462000ac5565b905092915050565b60805160a05160c05160e0516101005161012051610140516101605161177962000bf260003960008181610a2b0152610a520152600061043801526000610414015260008181610269015281816104a40152818161060d015281816107c101526108c501526000818161028f0152818161045c015281816105e7015281816107e7015261089f01526000818161023e0152818161064a015261093f015260006101df0152600081816103530152818161048001528181610780015261085e01526117796000f3fe608060405234801561001057600080fd5b506004361061009e5760003560e01c80633fd1e2bd116100665780633fd1e2bd146101495780635001f3b5146101675780637535d24614610185578063999b93af146101a3578063fa461e33146101c15761009e565b80630542975c146100a35780631b11d0ff146100c15780632681f7e4146100f15780633075962f1461010f57806333f761781461012b575b600080fd5b6100ab6101dd565b6040516100b89190610b21565b60405180910390f35b6100db60048036038101906100d69190610c1f565b610201565b6040516100e89190610cd4565b60405180910390f35b6100f961023c565b6040516101069190610d10565b60405180910390f35b61012960048036038101906101249190610d90565b610260565b005b610133610412565b6040516101409190610e06565b60405180910390f35b610151610436565b60405161015e9190610e06565b60405180910390f35b61016f61045a565b60405161017c9190610e42565b60405180910390f35b61018d61047e565b60405161019a9190610e7e565b60405180910390f35b6101ab6104a2565b6040516101b89190610e42565b60405180910390f35b6101db60048036038101906101d69190610ecf565b6104c6565b005b7f000000000000000000000000000000000000000000000000000000000000000081565b600080600080600086868101906102189190610f81565b935093509350935061022e848484848e8e61076e565b505050509695505050505050565b7f000000000000000000000000000000000000000000000000000000000000000081565b60008161028d577f00000000000000000000000000000000000000000000000000000000000000006102af565b7f00000000000000000000000000000000000000000000000000000000000000005b90508073ffffffffffffffffffffffffffffffffffffffff166323b872dd3330876040518463ffffffff1660e01b81526004016102ee93929190611006565b6020604051808303816000875af115801561030d573d6000803e3d6000fd5b505050506040513d601f19601f820116820180604052508101906103319190611052565b50600060018461034191906110ae565b60ff168561034f91906110e2565b90507f000000000000000000000000000000000000000000000000000000000000000073ffffffffffffffffffffffffffffffffffffffff166342b0b77c30848433888b8d6040516020016103a7949392919061113c565b60405160208183030381529060405260006040518663ffffffff1660e01b81526004016103d8959493929190611263565b600060405180830381600087803b1580156103f257600080fd5b505af1158015610406573d6000803e3d6000fd5b50505050505050505050565b7f000000000000000000000000000000000000000000000000000000000000000081565b7f000000000000000000000000000000000000000000000000000000000000000081565b7f000000000000000000000000000000000000000000000000000000000000000081565b7f000000000000000000000000000000000000000000000000000000000000000081565b7f000000000000000000000000000000000000000000000000000000000000000081565b600080600084848101906104da91906112bd565b92509250925060006104eb84610a22565b9050600088141580156104ff575060008714155b61053e576040517f08c379a00000000000000000000000000000000000000000000000000000000081526004016105359061136d565b60405180910390fd5b8061054c5760008813610551565b600087135b610590576040517f08c379a0000000000000000000000000000000000000000000000000000000008152600401610587906113d9565b60405180910390fd5b8061059d578188116105a1565b8187115b6105e0576040517f08c379a00000000000000000000000000000000000000000000000000000000081526004016105d790611445565b60405180910390fd5b8361060b577f000000000000000000000000000000000000000000000000000000000000000061062d565b7f00000000000000000000000000000000000000000000000000000000000000005b73ffffffffffffffffffffffffffffffffffffffff1663a9059cbb7f0000000000000000000000000000000000000000000000000000000000000000856040518363ffffffff1660e01b8152600401610687929190611465565b6020604051808303816000875af11580156106a6573d6000803e3d6000fd5b505050506040513d601f19601f820116820180604052508101906106ca9190611052565b505050505050505050565b61076b816040516024016106e991906114d2565b6040516020818303038152906040527f41304fac000000000000000000000000000000000000000000000000000000007bffffffffffffffffffffffffffffffffffffffffffffffffffffffff19166020820180517bffffffffffffffffffffffffffffffffffffffffffffffffffffffff8381831617835250505050610a79565b50565b6000828561077c91906114f4565b90507f000000000000000000000000000000000000000000000000000000000000000073ffffffffffffffffffffffffffffffffffffffff1663617ba037876107e5577f0000000000000000000000000000000000000000000000000000000000000000610807565b7f00000000000000000000000000000000000000000000000000000000000000005b838a60006040518563ffffffff1660e01b815260040161082a949392919061154a565b600060405180830381600087803b15801561084457600080fd5b505af1158015610858573d6000803e3d6000fd5b505050507f000000000000000000000000000000000000000000000000000000000000000073ffffffffffffffffffffffffffffffffffffffff1663a415bcad876108c3577f00000000000000000000000000000000000000000000000000000000000000006108e5565b7f00000000000000000000000000000000000000000000000000000000000000005b86600260008c6040518663ffffffff1660e01b815260040161090b9594939291906115ca565b600060405180830381600087803b15801561092557600080fd5b505af1158015610939573d6000803e3d6000fd5b505050507f000000000000000000000000000000000000000000000000000000000000000073ffffffffffffffffffffffffffffffffffffffff1663128acb083061098389610a22565b8760008b8a898b61099491906114f4565b6040516020016109a69392919061161d565b6040516020818303038152906040526040518663ffffffff1660e01b81526004016109d5959493929190611694565b60408051808303816000875af11580156109f3573d6000803e3d6000fd5b505050506040513d601f19601f82011682018060405250810190610a179190611703565b505050505050505050565b600081610a50577f000000000000000000000000000000000000000000000000000000000000000015610a72565b7f00000000000000000000000000000000000000000000000000000000000000005b9050919050565b60008151905060006a636f6e736f6c652e6c6f679050602083016000808483855afa5050505050565b600073ffffffffffffffffffffffffffffffffffffffff82169050919050565b6000819050919050565b6000610ae7610ae2610add84610aa2565b610ac2565b610aa2565b9050919050565b6000610af982610acc565b9050919050565b6000610b0b82610aee565b9050919050565b610b1b81610b00565b82525050565b6000602082019050610b366000830184610b12565b92915050565b600080fd5b600080fd5b6000610b5182610aa2565b9050919050565b610b6181610b46565b8114610b6c57600080fd5b50565b600081359050610b7e81610b58565b92915050565b6000819050919050565b610b9781610b84565b8114610ba257600080fd5b50565b600081359050610bb481610b8e565b92915050565b600080fd5b600080fd5b600080fd5b60008083601f840112610bdf57610bde610bba565b5b8235905067ffffffffffffffff811115610bfc57610bfb610bbf565b5b602083019150836001820283011115610c1857610c17610bc4565b5b9250929050565b60008060008060008060a08789031215610c3c57610c3b610b3c565b5b6000610c4a89828a01610b6f565b9650506020610c5b89828a01610ba5565b9550506040610c6c89828a01610ba5565b9450506060610c7d89828a01610b6f565b935050608087013567ffffffffffffffff811115610c9e57610c9d610b41565b5b610caa89828a01610bc9565b92509250509295509295509295565b60008115159050919050565b610cce81610cb9565b82525050565b6000602082019050610ce96000830184610cc5565b92915050565b6000610cfa82610aee565b9050919050565b610d0a81610cef565b82525050565b6000602082019050610d256000830184610d01565b92915050565b600060ff82169050919050565b610d4181610d2b565b8114610d4c57600080fd5b50565b600081359050610d5e81610d38565b92915050565b610d6d81610cb9565b8114610d7857600080fd5b50565b600081359050610d8a81610d64565b92915050565b60008060008060808587031215610daa57610da9610b3c565b5b6000610db887828801610ba5565b9450506020610dc987828801610ba5565b9350506040610dda87828801610d4f565b9250506060610deb87828801610d7b565b91505092959194509250565b610e0081610d2b565b82525050565b6000602082019050610e1b6000830184610df7565b92915050565b6000610e2c82610aee565b9050919050565b610e3c81610e21565b82525050565b6000602082019050610e576000830184610e33565b92915050565b6000610e6882610aee565b9050919050565b610e7881610e5d565b82525050565b6000602082019050610e936000830184610e6f565b92915050565b6000819050919050565b610eac81610e99565b8114610eb757600080fd5b50565b600081359050610ec981610ea3565b92915050565b60008060008060608587031215610ee957610ee8610b3c565b5b6000610ef787828801610eba565b9450506020610f0887828801610eba565b935050604085013567ffffffffffffffff811115610f2957610f28610b41565b5b610f3587828801610bc9565b925092505092959194509250565b6000610f4e82610aa2565b9050919050565b610f5e81610f43565b8114610f6957600080fd5b50565b600081359050610f7b81610f55565b92915050565b60008060008060808587031215610f9b57610f9a610b3c565b5b6000610fa987828801610f6c565b9450506020610fba87828801610d7b565b9350506040610fcb87828801610ba5565b9250506060610fdc87828801610ba5565b91505092959194509250565b610ff181610b46565b82525050565b61100081610b84565b82525050565b600060608201905061101b6000830186610fe8565b6110286020830185610fe8565b6110356040830184610ff7565b949350505050565b60008151905061104c81610d64565b92915050565b60006020828403121561106857611067610b3c565b5b60006110768482850161103d565b91505092915050565b7f4e487b7100000000000000000000000000000000000000000000000000000000600052601160045260246000fd5b60006110b982610d2b565b91506110c483610d2b565b9250828210156110d7576110d661107f565b5b828203905092915050565b60006110ed82610b84565b91506110f883610b84565b9250817fffffffffffffffffffffffffffffffffffffffffffffffffffffffffffffffff04831182151516156111315761113061107f565b5b828202905092915050565b60006080820190506111516000830187610fe8565b61115e6020830186610cc5565b61116b6040830185610ff7565b6111786060830184610ff7565b95945050505050565b600081519050919050565b600082825260208201905092915050565b60005b838110156111bb5780820151818401526020810190506111a0565b838111156111ca576000848401525b50505050565b6000601f19601f8301169050919050565b60006111ec82611181565b6111f6818561118c565b935061120681856020860161119d565b61120f816111d0565b840191505092915050565b6000819050919050565b600061ffff82169050919050565b600061124d6112486112438461121a565b610ac2565b611224565b9050919050565b61125d81611232565b82525050565b600060a0820190506112786000830188610fe8565b6112856020830187610fe8565b6112926040830186610ff7565b81810360608301526112a481856111e1565b90506112b36080830184611254565b9695505050505050565b6000806000606084860312156112d6576112d5610b3c565b5b60006112e486828701610d7b565b93505060206112f586828701610ba5565b925050604061130686828701610ba5565b9150509250925092565b600082825260208201905092915050565b7f4e6f207377617000000000000000000000000000000000000000000000000000600082015250565b6000611357600783611310565b915061136282611321565b602082019050919050565b600060208201905081810360008301526113868161134a565b9050919050565b7f57726f6e672062616c616e636520726563656976656400000000000000000000600082015250565b60006113c3601683611310565b91506113ce8261138d565b602082019050919050565b600060208201905081810360008301526113f2816113b6565b9050919050565b7f4e6f7420656e6f75676820726563656976656400000000000000000000000000600082015250565b600061142f601383611310565b915061143a826113f9565b602082019050919050565b6000602082019050818103600083015261145e81611422565b9050919050565b600060408201905061147a6000830185610fe8565b6114876020830184610ff7565b9392505050565b600081519050919050565b60006114a48261148e565b6114ae8185611310565b93506114be81856020860161119d565b6114c7816111d0565b840191505092915050565b600060208201905081810360008301526114ec8184611499565b905092915050565b60006114ff82610b84565b915061150a83610b84565b9250827fffffffffffffffffffffffffffffffffffffffffffffffffffffffffffffffff0382111561153f5761153e61107f565b5b828201905092915050565b600060808201905061155f6000830187610fe8565b61156c6020830186610ff7565b6115796040830185610fe8565b6115866060830184611254565b95945050505050565b6000819050919050565b60006115b46115af6115aa8461158f565b610ac2565b610b84565b9050919050565b6115c481611599565b82525050565b600060a0820190506115df6000830188610fe8565b6115ec6020830187610ff7565b6115f960408301866115bb565b6116066060830185611254565b6116136080830184610fe8565b9695505050505050565b60006060820190506116326000830186610cc5565b61163f6020830185610ff7565b61164c6040830184610ff7565b949350505050565b61165d81610e99565b82525050565b600061167e6116796116748461121a565b610ac2565b610aa2565b9050919050565b61168e81611663565b82525050565b600060a0820190506116a96000830188610fe8565b6116b66020830187610cc5565b6116c36040830186611654565b6116d06060830185611685565b81810360808301526116e281846111e1565b90509695505050505050565b6000815190506116fd81610ea3565b92915050565b6000806040838503121561171a57611719610b3c565b5b6000611728858286016116ee565b9250506020611739858286016116ee565b915050925092905056fea2646970667358221220ca2ef547a5126d35b2a8fc901fe8116d2bdb2556cf9a535755f9b818b232be4164736f6c634300080a0033","abi":[{"inputs":[{"internalType":"contract IPool","name":"_pool","type":"address"},{"internalType":"contract IPoolAddressesProvider","name":"_addressesProvider","type":"address"},{"internalType":"address","name":"_base","type":"address"},{"internalType":"address","name":"_quote","type":"address"},{"internalType":"address","name":"_uniPool","type":"address"}],"stateMutability":"nonpayable","type":"constructor"},{"inputs":[],"name":"ADDRESSES_PROVIDER","outputs":[{"internalType":"contract IPoolAddressesProvider","name":"","type":"address"}],"stateMutability":"view","type":"function"},{"inputs":[],"name":"POOL","outputs":[{"internalType":"contract IPool","name":"","type":"address"}],"stateMutability":"view","type":"function"},{"inputs":[],"name":"base","outputs":[{"internalType":"contract IERC20","name":"","type":"address"}],"stateMutability":"view","type":"function"},{"inputs":[],"name":"baseDecimals","outputs":[{"internalType":"uint8","name":"","type":"uint8"}],"stateMutability":"view","type":"function"},{"inputs":[{"internalType":"address","name":"","type":"address"},{"internalType":"uint256","name":"amount","type":"uint256"},{"internalType":"uint256","name":"premium","type":"uint256"},{"internalType":"address","name":"","type":"address"},{"internalType":"bytes","name":"params","type":"bytes"}],"name":"executeOperation","outputs":[{"internalType":"bool","name":"","type":"bool"}],"stateMutability":"nonpayable","type":"function"},{"inputs":[],"name":"quote","outputs":[{"internalType":"contract IERC20","name":"","type":"address"}],"stateMutability":"view","type":"function"},{"inputs":[],"name":"quoteDecimals","outputs":[{"internalType":"uint8","name":"","type":"uint8"}],"stateMutability":"view","type":"function"},{"inputs":[{"internalType":"uint256","name":"borrowAmount","type":"uint256"},{"internalType":"uint256","name":"collateral","type":"uint256"},{"internalType":"uint8","name":"leverage","type":"uint8"},{"internalType":"bool","name":"isLong","type":"bool"}],"name":"takeOutFlashLoan","outputs":[],"stateMutability":"nonpayable","type":"function"},{"inputs":[],"name":"uniswap","outputs":[{"internalType":"contract IUniswapV3PoolActions","name":"","type":"address"}],"stateMutability":"view","type":"function"},{"inputs":[{"internalType":"int256","name":"amount0Delta","type":"int256"},{"internalType":"int256","name":"amount1Delta","type":"int256"},{"internalType":"bytes","name":"data","type":"bytes"}],"name":"uniswapV3SwapCallback","outputs":[],"stateMutability":"nonpayable","type":"function"}]}